:1000000070820020C50A00007F0A00007F0A0000FD
:100010007F0A00007F0A00007F0A00000000000045
:100020000000000000000000000000007F0A000047
:100030007F0A0000000000007F0A00007F0A000025
:1000400000210FF2844252F83130834204D2491C1D
:100050000629F8D30020704702EBC10040687047C2
:10006000C0F30722DFF8241280008A1800F47F70A2
:1000700040EA421040F084400121016070472DE9C0
:10008000F84FDFF80C32DFF8005289460246196853
:10009000DFF8F0010140A9424DD002F038001028ED
:1000A000C2F3841B4FF4004ADFF8EC1104D18846F8
:1000B00000274FF00C0B30E0302804D147F23058C5
:1000C0004FF4001727E0382803D1D0464FF48007BB
:1000D00021E012F0380F1BD1ABF1090012282AD20F
:1000E0000FF2C81555F82B80D86F20F01C00BBF11B
:1000F000070FA8BF40F01000D8674FF04C774FF4BF
:1001000000201D6DEC0500F1B980401EF9D112E010
:100110004FF000080027ABF1090B12F4605FDFF825
:100120007C41DFF870617CD112F0380F1CBF02F007
:100130003800102801D000209EE0C2F30260009039
:10014000DFF85C01FFF77CFF30613168DFF85401B4
:10015000014041F00041316000980FF29C3151F8AC
:1001600020103068384349443060491E009AB1FB82
:10017000F9F5D8200FF2A011424388180C2101FB99
:100180000BF142186D1E52686260626842EA0522F5
:1001900062604058216801F4000108432060206833
:1001A00021686268636803F01F03C0F389205B1C49
:1001B000B8FBF3F34FEA501909FB03F5C1F309014A
:1001C0006D09A0EB491001FB0351584301EB90214D
:1001D000C2F30420401CB1FBF0F94FEA590948462C
:1001E000FFF72EFF30612068010204D5316841F02D
:1001F0008041316003E0206840F4000020605046F8
:10020000A168CA0702D4401E0028F9DC30B130686A
:10021000074347F0104747F0010727E04FF0000978
:1002200025E00846FFF70CFF30612168DFF8780011
:1002300021F4000121603168014041F00041B9F131
:10024000000F316008BF002506D0B8FBF9F505B1F5
:100250006D1E681CB8FBF0F94846FFF7F1FE3061EF
:10026000306840EA8520074347F000473760306830
:1002700020F4700030604846BDE8F28F00287FF41B
:100280004AAF58E70000FF700000051000E60F407D
:1002900000E00F40B0E00F400024F40060E10F40A8
:1002A00040787D0100FC0FE0FF0300EF40420F00AB
:1002B00000201C0080841E0000802500999E3600CE
:1002C0000040380000093D0000803E0000004B0067
:1002D000404B4C0000204E00808D5B0000C05D0054
:1002E0000080700000127A0000007D008096980067
:1002F000001BB7000080BB00C0E8CE00647ADA00C3
:100300000024F4000000FA0080A81201002D310141
:1003100000366E0140787D014000000000000000C2
:10032000000100003E000800000000000001000085
:10033000A000000002000000000100003454010091
:1003400000000000000100002B700600000000000B
:100350000001000028000000000000000001000073
:100360002700010000000000000100002000000044
:10037000000000000001000050000000020000002A
:10038000000100001AAC00000000000000010000A5
:1003900017940900000000000001000016980500F5
:1003A0000000000000010000140000000000000038
:1003B00000010000138008000000000000010000A0
:1003C000A000000008000000000100001000000074
:1003D00000000000000100002800000002000000F2
:1003E00000010000400000000400000000010000C7
:1003F0006000000000000000000100005D000C0033
:10040000000000000001000050000000000000009B
:10041000000100004E00020000000000000100008A
:1004200041AC010000000000000100003C000000A1
:1004300000000000000100003A80090000000000F8
:10044000000100003000000000000000000100007A
:10045000280000000000000000010000270001004B
:100460000000000000010000236006000000000002
:1004700000010000216008000000000000010000F1
:100480001E00000000000000000100001DC004006C
:100490000000000000010000500000000200000009
:1004A0000001000018000000000000000001000032
:1004B00014000000000000000001000060000000C7
:1004C00004000000000100000024F40030003000AF
:1004D000005A62029100910000879303D200D2007B
:1004E00000B4C4041301130100E1F50554015401E3
:1004F000000E27079501950100688909001C4E0E22
:1005000070B5DFF81C42DFF81C122568DFF81862AE
:1005100018230D400FF21C22B54204BF0FF2D42263
:100520001B23002100E0491C994207D252F83140B8
:100530008442F8D102EBC100406870BD002070BD5C
:1005400030B5CB4300F58064D50725684CBF0D431B
:100550001D40256000F58460920747BF0268114383
:1005600001681940016030BD30B5CB4300F58164AE
:10057000D50725684CBF0D431D40256000F204449B
:10058000950725684CBF0D431D40256000F20C44C3
:10059000550747BF2368194321681940216000F5BA
:1005A000A760D10301684EBF41F00101490849002D
:1005B000016030BDF0B5002400F6C4750126A640E8
:1005C000314211D066002F684FF0030C0CFA06FC84
:1005D00027EA0C072F60C2F34117D5F800C007FACD
:1005E00006F646EA0C062E60641C082CE6DBCC43BB
:1005F00000F5A065D6072E684CBF0E4326402E603E
:1006000000F2045596072E684CBF0E4326402E601C
:1006100000F5A16556072E684CBF0E4326402E609C
:1006200000F5A36516072E684CBF0E4326402E60CA
:1006300000F23C55D2062A684CBF0A4322402A6089
:10064000DD0700F20C5215684CBF0D4325401560C4
:1006500000F5A2629D0715684CBF0D43254015604B
:1006600000F214525D0715684CBF0D43254015601C
:1006700000F21C521D0715684CBF0D432540156044
:1006800000F244529D0515684CBF0D43254015608E
:1006900000F5A86213F4407F156814BF0D43254090
:1006A000156000F5A560002B07BF026841EA02044F
:1006B00001680C400460F0BD00F5826036E000295E
:1006C00014BF00F5836000F214400068704700F228
:1006D0001C400160704738B50C46FFF711FF054616
:1006E000214600F0FBF82846FFE7BDE8324000F065
:1006F00009B900EB81000068704700EB81000260DF
:10070000704738B504460D460823FFE70122FFF77E
:1007100051FF29462046BDE83840012210E700007D
:1007200000E00F400000FF7000000A100268114353
:10073000016070470040004010000000008005404C
:100740001000000000500040110000000090054023
:1007500011000000006000401200000000A00540F1
:1007600012000000007000401300000000B00540BF
:1007700013000000004002401400000000C00540CB
:1007800014000000005002402E00000000D0054080
:100790002E000000006002402F00000000E0054035
:1007A0002F000000007002403000000000F0054003
:1007B0003000000000D0034046000000000006406A
:1007C00046000000001006404700000000200640E0
:1007D00048000000003006407F0000000040064056
:1007E00080000000005006408400000000600640C9
:1007F0008C00000000400040100000000080054018
:100800001000000000500040110000000090054062
:1008100011000000006000401200000000A0054030
:1008200012000000007000401300000000B00540FE
:1008300013000000004002401400000000C005400A
:1008400014000000005002402E00000000D00540BF
:100850002E000000006002402F00000000E0054074
:100860002F000000007002403000000000F0054042
:100870003000000000D003404300000000000640AC
:100880004300000000100640440000000020064025
:1008900045000000003006405800000000400640BF
:1008A00059000000005006405C0000000060064057
:1008B00064000000007006406C00000000800640EC
:1008C0006D000000009006407F00000080B500F041
:1008D00057F8FFE700B10120C0B202BDF0B51F4CD0
:1008E0001F4A256895420AD02568002605EB860731
:1008F0003F6842F82670761C9B2EF7D3226042F8A0
:100900002010F0BD0428174903D1086840F4803056
:100910000BE0052804D10A6842F400320A607047EF
:10092000062804D1086840F48020086070470F282A
:1009300005D10D48016841F00201016070470CD9F2
:100940000FF22803A0F110011038400953F82000DD
:10095000012201F01F018A400260704708ED00E0AB
:100960000000002024ED00E010E000E000E100E0E5
:1009700004E100E008E100E00CE100E010E100E04B
:10098000EFF3108062B6704710B52E492E482F4CF9
:10099000FFF775FB2E48FFF763FB2E48FFF760FB60
:1009A00003212046FFF7ADFE002203212046FFF77A
:1009B000A4FE294C002203212046FFF7C1FD0A2393
:1009C000012203212046FFF7F5FD0FF22101204609
:1009D000FFF781FE002203212046FFF7C5FD03211A
:1009E0002046FFF769FEFFF771FFFEE738B51A4CA6
:1009F00001212046FFF763FE054629462046FFF702
:100A000066FEE807114C0BD502212046FFF771FE68
:100A1000002814BF0022FF2202212046FFF76DFEAE
:100A2000A8070DD501212046FFF763FE00282046C8
:100A3000BDE8384014BF0022FF220121FFF75DBE50
:100A400031BD0000000E2707800600F1004006407F
:100A5000080800F00C0800F000D003404EF6885162
:100A6000CEF20001086840F470000860BFF34F8FB9
:100A7000BFF36F8F4FF00070E1EE100A7047FEE792
:100A800000F00BF8002801D0AFF300800020AFF396
:100A90000080FFF779FF00F002F80120704700F0B6
:100AA00001B800000746384600F002F8FBE70000F6
:100AB00080B5AFF30080024A11001820ABBEFBE7FF
:100AC00026000200AFF30080FFF7C8FFFFF7D8FF52
:0400000500000AC528
:00000001FF
